:100000000C94A5020C94EC020C94EC020C94EC02FF
:100010000C94EC020C94EC020C94EC020C94EC02A8
:100020000C94EC020C94EC020C944B160C941F15DF
:100030000C9423220C94EC020C94EC020C94EC0231
:100040000C94EC020C94EC020C94EC020C94EC0278
:100050000C94EC020C94B8210C94EC020C94EC027D
:100060000C94EC020C94EC020C94EC020C94EC0258
:100070000C94EC020C94EC020C94EC020C94EC0248
:100080000C94EC020C94EC020C94EC020C94EC0238
:100090000C94EC020C94EC020C94EC020C94EC0228
:1000A0000C94EC020C94EC020C94EC0296049F0469
:1000B000CA04070545058705CE05D105D605D9052E
:1000C000DC05DF05E205E505E805EB05EE05F105D4
:1000D000F405F905FE050106040609064A068B0625
:1000E0008E0693069E06A106AC06AF06BA06BD06AE
:1000F000C806CB06D6064C0B570B5C0B610B660B88
:100100006B0B700B750B7A0B7F0B840B8B0B8D0BB2
:100110008F0B910B720E720E720E720E720EF70B27
:10012000F70B310C310C870CA30C350E350EAE0CD1
:100130008C0D9D0D9D0DFF1D261EBC1F261EBC1F78
:100140006E1E911EBC1F801F931FB324B324C624B0
:10015000C624BC24C624C624C624B324B324C12484
:10016000C624C624C124165C1E001F0020002100E6
:100170002200230024002500260027002D002E0049
:100180002A002B0014001A000800150017001C009C
:1001900018000C00120013002F0030003100015134
:1001A000000004001600070009000A000B000D0003
:1001B0000E000F003300340028000000E1001D0095
:1001C0001B00060019000500110010003600370062
:1001D00038725200E400E000E200E300000000009A
:1001E00000002C00000000000151E7005000510009
:1001F0004F0029003A003B003C003D003E003F001C
:100200004000410042004300440045004C003500DE
:100210002400250026002700010001004A12520098
:100220004D1201004A004D000100010000002100B4
:1002300022002300010001000100500051004F0086
:1002400001000100AE00000039001E001F00200068
:10025000010001000100010001000100E5004B0068
:100260000100010001000100000000000000025137
:1002700000000000010001004A004E004D00350062
:100280003A003B003C003D003E003F004000410082
:10029000420043004400450000003500C35CC45CDC
:1002A000CB5CCA5C0000000000004B0000000000B6
:1002B00000000000000039000000C75CC55CC65C9F
:1002C000C95CC85C00004A024E004D1200000000EC
:1002D000AE0000000000CD5CCC5C0000000000001F
:1002E00000000000000000000000A9000000000065
:1002F00000000000000000000000010000000000FD
:1003000001000000AC00AA00AB00000101010101E6
:1003100001010101020202020202020202030303BE
:10032000030303030304040404040404050505058E
:10033000050606060606070707070708080808094E
:100340000909090A0A0A0B0B0B0C0C0C0D0D0D0EFA
:100350000E0E0F0F0F10101111111212131314148F
:10036000151516161717181819191A1A1B1B1C1D04
:100370001D1E1E1F2020212222232424252626275D
:100380002829292A2B2C2D2D2E2F3031323233348F
:1003900035363738393A3B3C3D3E3F404142434495
:1003A00045464748494A4C4D4E4F50515354555677
:1003B00058595A5B5D5E5F616264656668696B6C23
:1003C0006D6F7072737577787A7B7D7E808283859E
:1003D00087888A8C8E8F91939596989A9C9EA0A2DE
:1003E000A3A5A7A9ABADAFB1B3B5B7BABCBEC0C2E8
:1003F000C4C6C9CBCDCFD1D4D6D8DBDDDFE2E4E7AC
:10040000E9EBEEF0F3F5F8FAFDFF05010902A101B1
:1004100085020901A1000509190129051500250119
:10042000950575018102950175038101050109306A
:1004300009311581257F95027508810609381581D6
:10044000257F950175088106050C0A38021581255E
:100450007F950175088106C0C005010980A101854D
:100460000319012AB700150126B7009501751081FF
:1004700000C0050C0901A101850419012AA002157B
:100480000126A002950175108100C005010906A191
:1004900001050719E029E715002501950875018177
:1004A000029501750881010507190029FF1500262D
:1004B000FF009506750881000508190129059505B5
:1004C00075019102950175039101C009023B00027B
:1004D0000100A0FA09040000010301010009211133
:1004E0000100012240000705810308000A090401F8
:1004F0000001030000000921110100012281000711
:1005000005820320000A1201100100000008504B70
:100510008CEF010001020001120342004D00360081
:1005200030002000520047004200000018034B003A
:1005300050002000520065007000750062006C00E1
:100540006900630000000403090411241FBECFEFFB
:10055000DAE0DEBFCDBF04B603FE27C080917A0487
:1005600090917B04A0917C04B0917D048730904BE6
:10057000A740B04BD1F410927A0410927B041092F1
:100580007C0410927D0414BE84B7877F84BF0FB6AD
:10059000F894A89580916000886180936000109223
:1005A00060000FBEE0E0F8E3099512E0A0E0B1E0E2
:1005B000ECE3F1E502C005900D92AA37B107D9F737
:1005C00024E0AAE7B2E001C01D92AA37B207E1F722
:1005D0000E9482170C949C280C94000090918F0329
:1005E00092FF0DC0282F2871283019F4877F84606E
:1005F00006C0282F2471243011F48B7F886093FF6C
:100600000DC0282F2871283119F4877E846106C017
:10061000282F2471243111F48B7E8861209190035E
:1006200020FF0DC0382F3871383019F4877F816072
:1006300006C0382F3171313011F48E7F886021FF70
:100640000DC0282F2871283119F4877E816106C0DA
:10065000282F2171213111F48E7E886194FD877ECF
:100660000895F894E82FE295EF70F0E031A1282F7B
:100670002F7081E090E001C0880F2A95EAF7982F4B
:100680009095932391A392A1892B82A378940895A6
:100690008F929F92AF92BF92CF92DF92EF92FF9292
:1006A0000F931F93CF93DF93F0E2EF2EF1E0FF2E35
:1006B000C1E8D3E0ABE8AA2EA3E0BA2E10E0CC2428
:1006C000C394D12CB701D7018C91F894E82FE2950F
:1006D000EF70F0E021A18F70A60102C0440F551FFA
:1006E0008A95E2F7CA01922F982B91A392A1809547
:1006F000892382A3789450EA5A95F1F7E5E2F1E074
:1007000020E030E0812C912C4191842F82958F70D4
:1007100090E0DC0190968C9190E04F7002C095952E
:1007200087954A95E2F780FD08C0C601022E02C0F7
:10073000880F991F0A94E2F702C080E090E0882AAF
:10074000992A2F5F3F4F2E303105F1F6BFEFEB1A9C
:10075000FB0AFB0180810E94310388819981881600
:10076000990621F09982888281E001C080E0182BEF
:100770002296AC16BD0609F0A5CF112349F081E001
:1007800080937C020E94ED2190937B0280937A02F9
:1007900080917C02882391F180917A0290917B0272
:1007A0000E94DE21069750F180918103909182038F
:1007B0009093950380939403809183039091840395
:1007C000909397038093960380918503909186037D
:1007D0009093990380939803809187039091880365
:1007E00090939B0380939A038091890390918A034D
:1007F00090939D0380939C0310927C0240917D0214
:1008000050917E0260917F02709180022FB7F89420
:100810008091750490917604A0917704B09178044A
:100820002FBF841B950BA60BB70B2FB7F894C09066
:100830007504D0907604E0907704F09078042FBF90
:10084000C0927D02D0927E02E0927F02F0928002FE
:1008500000915803E8E5F3E0202F30E04FEF5FEF21
:1008600060E070E0481B590B6A0B7B0B031799F093
:10087000C18DD28D4E01A12CB12C481559056A05A8
:100880007B0510F4215004C0C80FD91FD28FC18F2F
:100890003F5F3296EBCF209358032091D103822FF4
:1008A000837021F0022F0695069501C000E080912B
:1008B00011018130E9F038F0823009F492C28330BE
:1008C00009F497C2B3C210921201C092CD03D09224
:1008D000CE03E092CF03F092D00389E2E8E5F3E0A3
:1008E000A6EDB3E001900D928A95E1F781E076C222
:1008F0008091050108130BC0237030E04091040182
:1009000050E081E02417350719F480E001C081E050
:10091000817080931401402F50E04532510508F05A
:100920004BC2FA01EA5AFF4F0C948D28882309F430
:1009300043C240E060E080E00E944A133DC28091E3
:100940001201CEE08C9FC02D1124DEE0DC0FD634E6
:1009500008F0D5E46091D2037091D3038091D40361
:100960000E940014F62EE72ED82ECD1708F011C1E4
:10097000EC2FF0E0DF01AD5FBD4F8C919091130142
:10098000982331F02D2D4F2D6E2DCF010E944C1349
:10099000CF5FEBCFC09112018EE0C89FC02D112414
:1009A000DEE0DC0FD63408F0D5E4E090D303F0901D
:1009B000D403D090D2036D2D7E2D8F2D0E94001474
:1009C000C62EB72EA82E6091D5036D0D7E2D8F2DCE
:1009D0000E940014F62EE72ED82ECD1708F0D9C0AD
:1009E0008C2F90E0FC01ED5FFD4F308120911301D1
:1009F000232359F030FF04C02D2D4F2D6E2D03C041
:100A00002A2D4C2D6B2D0E944C13CF5FE6CFC09149
:100A100012018EE0C89FC02D1124DEE0DC0FD63419
:100A200008F0D5E4E090D303B090D4032091D5032F
:100A3000E0E4FE2E3F2D329F312D1124F32ECD17F1
:100A400008F0A7C0CC2ED12CF601ED5FFD4F9081B0
:100A5000809113018923B9F0F601EE0FFF1FE658CC
:100A6000FE4F808182958F706091D2038F9D600DC3
:100A700011247E2D8B2D0E940014462F282F672FC6
:100A8000C6010E944C13CF5FDACFC09112018EE0F5
:100A9000C89FC02D1124DEE0DC0FD63408F0D5E469
:100AA000C090D303B090D4032091D50360E4D62E38
:100AB0004D2D429F412D1124D42ECD1708F069C031
:100AC000EC2EF12CF701ED5FFD4F90818091130129
:100AD0008923D9F0F701EE0FFF1FE758FE4F608121
:100AE000D69EB001112455E0759567955A95E1F7AA
:100AF0008091D203680F7C2D8B2D0E940014462F0D
:100B0000282F672FC7010E944C13CF5FD6CFC0910B
:100B100012018EE0C89FC02D1124DEE0DC0FD63418
:100B200008F0D5E4E090D203F090D303D090D40342
:100B30006091D5036695669566958091CD039091F9
:100B4000CE030E94F6130E947B13805887FD819587
:100B5000880F582F2D2D529F512D1124852FB7010D
:100B60000E940014F62EE72ED82ECD1790F4EC2F0D
:100B7000F0E0DF01AD5FBD4F8C91909113019823A0
:100B800031F02D2D4F2D6E2DCF010E944C13CF5FD4
:100B9000ECCF81E0D53408F410C10EC184E890E1B7
:100BA00002C088E590E10E94821C07C18DE591E1B9
:100BB0001DC08EE391E11AC083E291E11CC087E081
:100BC00091E119C086E590E1EECF8DE490E1EBCFA5
:100BD00084E490E1E8CF89E290E1E5CF8AE190E119
:100BE0000AC08DEC93E102C086EF90E10E94261CC2
:100BF000E4C082EE90E10E94AA1BDFC08CEE9FE071
:100C000005C08AEB9FE002C08CE79FE00E94491B71
:100C1000D4C081111EC06091D50320E1620F08F499
:100C20006FEF8091CD039091CE030E94F6136AE09E
:100C300070E00E946528892B09F0BEC00E94A027A1
:100C400065E470E00E947928609113010E9490147D
:100C5000B3C080911201CEE08C9FC02D11243EE0E4
:100C6000F32EFC0E35E43F1510F425E4F22ED0E00F
:100C7000CF2CD12CCC15DD053CF460911301CE01B5
:100C80000E9490142196F6CF81E044E44F1508F0BD
:100C900094C092C081111EC06091D50320E1620F03
:100CA00008F46FEF8091CD039091CE030E94F6136C
:100CB00065E070E00E946528892B09F07DC00E94E4
:100CC000A02765E470E00E947928609113010E94DA
:100CD000D61472C080911201CEE08C9FC02D1124D9
:100CE0009EE0F92EFC0E55E45F1510F485E4F82E15
:100CF000D0E0CF2CD12CCC15DD053CF46091130154
:100D0000CE010E94D6142196F6CF81E094E49F157F
:100D100008F053C051C085E79FE002C08FE69FE016
:100D20000E94DD1A4AC08091D60321E0382F321B81
:100D300008F430E0832F66E57FE03BC066E57FE0A6
:100D400037C08091D60321E0482F421B08F440E0D1
:100D5000842F6EE17FE02DC06EE17FE029C080919D
:100D6000D60321E0582F521B08F450E0852F6CEE7B
:100D70007EE01FC06CEE7EE01BC08091D60321E0B8
:100D8000382F321B08F430E0832F64ED7EE011C071
:100D900064ED7EE00DC08091D60321E0482F421B18
:100DA00008F440E0842F6EEB7EE003C06EEB7EE043
:100DB00080E00E941A1A01C080E0909112019F5FAA
:100DC00090931201811132C082E0809311018091D1
:100DD000140181112BC0011129C083E080931101FE
:100DE00025C0009305012370209304010E947B110C
:100DF000F4CF4091CD035091CE036091CF03709119
:100E0000D0032FB7F8948091750490917604A09147
:100E10007704B09178042FBF841B950BA60BB70BFA
:100E20004097A105B10510F010921101812FDF91BB
:100E3000CF911F910F91FF90EF90DF90CF90BF90D7
:100E4000AF909F908F900895CF93DF9326E4829F79
:100E5000C0011124FC014EE0749FE00DF11D11242E
:100E6000E60FF11DEE0FFF1FEA59FE4FC591D49119
:100E7000CE01C238D10569F1B0F4C133D10509F40E
:100E800075C048F4C932D10509F469C0CA32D10528
:100E900009F473C085C0C533D10509F459C0C933FD
:100EA000D105B9F07DC0C33ED10571F138F4C03E23
:100EB000D105B1F0C23ED10511F172C0C63ED105D7
:100EC000B9F1C73ED105C9F1C43ED10509F068C0EA
:100ED00024C020918F0320FD5DC021FD5BC060C058
:100EE00020918F0320FD50C02091900320FF51C11D
:100EF00080918F0384FD4BC183EE90E04AC1209125
:100F00008F0322FF46C1F4CF80918F0382FD3FC043
:100F10008091900380FD3EC0EBCF2091900321FF94
:100F200038C180918F0384FD32C187EE90E031C1DA
:100F300020918F0323FF2DC1F4CF80918F0383FD78
:100F40002CC08091900381FFECCF84EE90E021C112
:100F500020918F0325FF1DC189E290E01AC12091E5
:100F60008F0325FF16C185E390E013C120918F0305
:100F700026FF0FC18AE290E00CC120918F0326FF6B
:100F800008C181E390E005C189E390E002C182EEEF
:100F900090E0FFC080EE90E0FCC086EE90E0F9C0EB
:100FA000C11551E5D50708F06CC0C11520E5D20781
:100FB000F0F0CE01F4E096958795FA95E1F7282FA9
:100FC00023703C2F337081E090E002C0880F991F9E
:100FD0003A95E2F79C68922B2C2F2F702695269538
:100FE00050E2259F90011124822B932BD2C0C83E42
:100FF000D10570F5C03ED10508F0CBC0C83AD10587
:10100000B8F4C53AD10550F02C2F255AC22FD0E0A4
:10101000C85BDD4F888190E09064BBC0C130D105D2
:1010200009F4B7C008F4B3C0249708F4B0C0B1C045
:10103000CF3BD10508F0ABC02C2F285AC22FD0E0EF
:10104000CC0FDD1FC55BDD4F888199819464A1C001
:10105000C11540E2D40760F4C11551E0D50708F08E
:1010600098C0C03FD10508F492C0CE01906591C0F0
:10107000C11580E4D80708F48AC0CE019F70906A39
:1010800088C0C11525E5D20708F040C0C11544E568
:10109000D40728F09C2F8827846F906A7AC0C115E6
:1010A00053E5D507A8F09E012370332781E090E037
:1010B00002C0880F991F2A95E2F72C2F26952695B6
:1010C00050E2259F90011124822B932B9A6861C0D6
:1010D000C11582E5D80728F49C2F8827816F906A74
:1010E00058C09E012370332781E090E002C0880F32
:1010F000991F2A95E2F72C2F2695269540E2249FEA
:1011000090011124822B932B9C6843C0C11529E5C3
:10111000D207B0F4C11548E5D40728F09C2F8827E2
:10112000806F906A36C0C11556E5D50780F58C2FC3
:101130000E94EE028F7190E0982F8827906229C05C
:10114000C1158AE5D80790F48C2F8F700E94EE02AB
:101150009E0194E0369527959A95E1F72F7030E03F
:10116000322F22273069A901482B0FC0CE0190569B
:101170008115904260F48D2F8F710E94EE029E01C6
:10118000332730628F71A901582BCA0102C080E059
:1011900090E0DF91CF9108957F928F929F92AF92CE
:1011A000BF92CF92DF92EF92FF920F931F93CF9354
:1011B000DF93CDB7DEB72A970FB6F894DEBF0FBE28
:1011C000CDBFFC010081C18083819481892B39F0DE
:1011D0001FEFC11206C091E00F3F19F403C091E068
:1011E00001C090E090FD9EC57F0185E0DE0116966E
:1011F00001900D928A95E1F7D70112962C918E817C
:101200009F81222349F00E941423182F682F8E817A
:101210009F810E948D2303C00E946123182F8EE0BE
:10122000B6E41B9FF00111248C9DE00DF11D1124EB
:10123000E00FF11DEE0FFF1FEA59FE4F05911491CB
:10124000F7019281992371F0E181D7019C918E9FE2
:10125000F0011124ED5CFE4FE90FF11DD080BFEFCE
:10126000DB1202C0C12C02C0CC24C394709058037E
:10127000AC2CB12CC501870D911D0997A4F188E014
:1012800090E04C018A189B08B5016F5F7F4F685A48
:101290007C4FA40189E593E00E949328B501675F24
:1012A0007F4F685A7C4FA40181E693E00E94932807
:1012B000A401440F551FB501660F771F675E7F4F6E
:1012C000685A7C4F81E793E00E949328B5016F5ED6
:1012D0007F4F685A7C4FA40189E693E00E949328CF
:1012E0007A94709258038091580390E02D2D30E04D
:1012F000D901AA0FBB1FBD0167587E4F9D0126581B
:101300003E4F41E0480F9C15A8F490E0FC01E85ADC
:10131000FC4FDB015C915183D9015C915187D18AEB
:10132000880F991FFC01E85AFC4F128E118E91E034
:10133000842FE7CF80935803043FBCE51B0759F186
:1013400090F4093DFCE51F07E9F00A3D2CE5120782
:10135000A1F1083D3CE51307B1F506E221EE41EEAF
:1013600068ED7CE514C0063F8CE5180701F1C8F074
:10137000073FACE51A0739F507E225EE46EE67EFC1
:101380007CE505C007E225EE45EE69ED7CE5C70189
:101390000E94CA12A7C406E221EE40EE64EF7CE58B
:1013A000F6CF07E225EE44EE65EF7CE5F0CF06E2EE
:1013B00021EE42EE66EF7CE5EACF08E221E045EE61
:1013C0006AED7CE5E4CFF7019281992309F43FC1EE
:1013D000109281020230FCE51F0708F422C1063199
:1013E0002CE5120738F098012B5F3C452930310578
:1013F00008F017C10E9466229093900380938F0398
:1014000000313CE5130709F4C3C008F041C00830BF
:101410009CE5190709F49AC0F0F40430BCE51B07F9
:1014200009F487C068F40230FCE51F0709F477C0AF
:1014300003301C4509F0E5C080918F03826076C0BF
:1014400006303CE5130709F46EC008F07BC08091BC
:101450008F0388606BC00C309CE5190709F485C0C8
:1014600068F40A30BCE51B0709F474C008F079C0C1
:101470000E94962680918F03806858C00E30FCE54C
:101480001F0709F476C008F07FC080918F038BC0DE
:101490000C3F3CE5130709F44FC018F503319CE5F8
:1014A000190709F47DC078F40131BCE51B0709F484
:1014B00073C002311C4509F0A4C00E949626809199
:1014C0008F038F7733C00531FCE51F0709F472C025
:1014D00008F486C00B3F1C4509F093C0809190032F
:1014E0003EC001158DE5180709F45FC058F40E3FA2
:1014F000ACE51A0709F444C008F43FC0809190039A
:1015000082602DC00230EDE51E0709F475C008F4B5
:101510005DC003301D4509F074C060E06EC080916D
:101520008F03816003C080918F03806180938F035C
:1015300068C080918F0311C0809190038260809376
:1015400090035FC080918F038062F0CF80918F0302
:101550008064ECCF80918F0388608460E7CF8160E6
:10156000EECF80918F038E7FE1CF80918F038D7FAF
:10157000DDCF80918F03877FD9CF8091900318C0F2
:10158000809190038D7FDBCF80918F038F7ECECFB4
:1015900080918F038F7DCACF80918F038F7BC6CFC1
:1015A00080918F03877F8B7FC1CF809190038D7F48
:1015B0008E7FC5CF80918F0382FB222720F991E097
:1015C000922790FB82F990FB83F9B0CF8091900332
:1015D000982F909591708E7F892B90FB81F9AFCFDA
:1015E0000E94962680918F0387FB222720F991E0A5
:1015F000922790FB87F99ACF61E08EE090E00E94FD
:10160000DE2760918F031091900384E090E00E94A8
:10161000DE27612F81E290E00E94DE270E9496265D
:1016200061C380916F0406312CE5120749F58A7A6F
:1016300091E009F490E090938202882311F065E331
:1016400001C069E28FEF93E00E944C2216C0063180
:101650001C4509F081C080918202882309F460C38F
:1016600085E3EFEFF3E025E034E09281891301C0D8
:10167000128231962E173F07C1F70E94E72232C32C
:101680008272F801E35CFC45E431F10508F04DC0DD
:10169000E558FF4F0C948D289091D10381E0892764
:1016A0008093D103109211010E944E131BC343EE8D
:1016B00051E16CEE71E12CC04CEE51E163EE71E151
:1016C00027C041ED51E16AED71E122C04AED51E1DF
:1016D00061ED71E11DC049EB51E165EC71E118C0AC
:1016E00045EC51E169EB71E113C041EA51E16DEA6A
:1016F00071E10EC04DEA51E161EA71E109C040E6D5
:1017000053E166E573E104C046E553E160E673E149
:101710000E944413E7C281E005C085E003C08DE06C
:1017200001C082E10E94CC1CDDC201153CE513071B
:1017300031F00F3D1C4581F40E947722D3C20E94F4
:1017400096269FEFA4E3BCE09150A040B040E1F7A3
:1017500000C000000E949421D7010D911C91992393
:1017600049F0C8010E941423D82E682FC8010E9496
:101770008D2304C0C8010E946123D82EB8018D2D8D
:101780000E9424078C01982ED7011596AC901597CE
:10179000A2942FE0A2221296DC90D11010926E0437
:1017A00080916C04877099F0DD2089F0812F807F13
:1017B000803421F080E2800F883048F082E00E947F
:1017C000E72380916C048770CC24C3948111C12CD1
:1017D000B12EB2949FE0B9228B2D90E08C30910510
:1017E00008F043C2FC01E157FF4F0C948D28812F74
:1017F000807F1F70882311F01295107FDD20B9F0D3
:10180000112309F41DC280E2800F883010F091107E
:1018100006C080916F04182B10936F0405C080914F
:101820006E04182B10936E040E94E72209C2802FC9
:101830000E94B626112309F418C2005E10950830E4
:1018400010F0911006C080916F04182310936F045C
:1018500005C080916E04182310936E040E94E72245
:1018600004C2812F807F1F70803211F01295107F8B
:10187000992021F0B1E09B16E1F02AC0DD2081F033
:1018800080917004AA2051F0E1E0AE1207C0182B3D
:10189000181709F4EAC110937004E7C1812B10C036
:1018A000AA2021F0F1E0AF1609F4DFC10E94E12285
:1018B0002AC0DD2041F005E00A1508F4D6C1812FC9
:1018C0000E94AC26D2C124E02A1508F4CEC11BC068
:1018D000DD2061F0AA2099F3D70115968C91159718
:1018E00080FFAEC18F7015968C93E9CFAA2059F076
:1018F000093309F0B7C1BFEFE7EEF3E0B150E040C4
:10190000F040E1F7ADC1812F0E94A126AEC1812F29
:1019100086958695837019F0813059F0A6C1DD2037
:1019200019F0C801937002C080E090E00E94A812F4
:10193000A2C1DD2019F0C801937002C080E090E0E0
:101940000E94921298C1802FDD2019F00E942C2154
:1019500002C00E9465200E94F9218DC1812F8370F1
:1019600009F069C0D11085C1902F92959695977016
:10197000990F990F802F8F70882E912CA12CB12C4C
:10198000092E04C0880C991CAA1CBB1C0A94D2F70F
:1019900004FF12C04FE050E060E070E004C0440F6C
:1019A000551F661F771F9A95D2F7DB01CA018095F4
:1019B0009095A095B09503C080E090E0DC0116956D
:1019C0001695412F4370423019F1C8F4009171040B
:1019D000109172042091730430917404413059F0D5
:1019E00088299929AA29BB29BC01CD01602371232B
:1019F000822393230AC0802A912AA22AB32ABC01F7
:101A0000CD01682979298A299B290E94212431C185
:101A100088299929AA29BB2900917104109172047F
:101A20002091730430917404BC01CD0160277127AB
:101A300082279327EACFDD2019F0812F817001C022
:101A40008695882309F415C1902F929596959770E5
:101A5000990F990F802F8F70882E912CA12CB12C6B
:101A6000092E04C0880C991CAA1CBB1C0A94D2F72E
:101A700004FF12C04FE050E060E070E004C0440F8B
:101A8000551F661F771F9A95D2F7DB01CA01809513
:101A90009095A095B09503C080E090E0DC0116958C
:101AA0001695412F43704230D9F068F500918B03B1
:101AB00010918C0320918D0330918E03413059F0A9
:101AC00088299929AA29BB29BC01CD01602371234A
:101AD000822393231EC0802A912AA22AB32A13C0EC
:101AE00088299929AA29BB2900918B0310918C037D
:101AF00020918D0330918E03BC01CD0160277127A9
:101B00008227932706C0BC01CD01682979298A293B
:101B10009B290E94B823ADC01F70DD2039F0812FB2
:101B20000E940024802F0E94AC26A3C0802F0E9418
:101B3000A126812F0E94C2239CC0802F22EF9216E3
:101B400009F440C0291538F030EF931661F091EF99
:101B5000991699F170C0A3EF9A16D9F1B4EF9B16BC
:101B600009F44EC068C0DD2019F1E4E0EA1508F47C
:101B70007CC01F7181E090E0A0E0B0E0AC01BD014D
:101B800004C0440F551F661F771F1A95D2F7809126
:101B90008B0390918C03A0918D03B0918E038A01E9
:101BA0009B01082719272A273B27C901B80125C00F
:101BB00025E02A1508F459C0DCCFDD2029F0812F5B
:101BC0008F712CC0DD20D9F3812F8F710E94C22329
:101BD0004CC0DD2079F01F7181E090E0A0E0B0E022
:101BE000BC01CD0104C0660F771F881F991F1A958D
:101BF000D2F703C060E070E0CB010E94B82335C08B
:101C0000DD2079F01F71812F0E94002438E0139F9E
:101C1000C0011124836080936C04812F0E940024F2
:101C200024C081E00E94E72381E08A15F0F482E07D
:101C30000E94E7231AC0DD2039F0AA2009F4BFCFA3
:101C4000802F0E94F52611C0AA2009F4BDCF893348
:101C500049F49FEFA7EEB3E09150A040B040E1F708
:101C600000C00000802F0E94B62688EF8B0D8430C4
:101C700010F40E94BE12CC20A9F080916C0480FD6B
:101C800011C0F70112828595859585950E940024E3
:101C9000C7010E94CC0880916C0485958595859537
:101CA0000E94C22385E0F701DE01119601900D929A
:101CB0008A95E1F789819A810E9461239A8106E4DD
:101CC000809FF00111241EE0919FE00DF11D112471
:101CD0008981E80FF11DEE0FFF1FEA59FE4F859134
:101CE000949120C080916C048770E1F0F7018281AB
:101CF0008823C1F082E02A960FB6F894DEBF0FBEAB
:101D0000CDBFDF91CF911F910F91FF90EF90DF90AA
:101D1000CF90BF90AF909F908F907F900C94E723CF
:101D200089E29FCC2A960FB6F894DEBF0FBECDBFD6
:101D3000DF91CF911F910F91FF90EF90DF90CF90A7
:101D4000BF90AF909F908F907F900895E3E8F2E06E
:101D500093E0E235F90729F081836083428333966B
:101D6000F7CF0895FC01EE0FFF1F8E0F9F1FFC01A0
:101D7000ED57FD4F6183408322830895EF92FF92D8
:101D80000F939701201B31092F3F310519F010F0F7
:101D90002FEF30E02095382F320F08F43FEF832FDC
:101DA0000F91FF90EF900895EF92FF920F9397019C
:101DB000201B31092F3F310519F010F02FEF30E0D3
:101DC000322F3095482F430F08F44FEF842F620FC6
:101DD0000F91FF90EF900895EF92FF920F93972F3E
:101DE000093438F4B701601B71096F3F710519F0B0
:101DF00010F06FEF70E0485F5F4F4131510540F0E8
:101E0000A901485F5F4F4131510510F06FEF70E05D
:101E10006095482F460F08F44FEF842F37FF02C01C
:101E20002D5F3F4F35952795359527956091D203C6
:101E3000620F792F0F91FF90EF900895EF92FF922C
:101E40000F93E00EF11CF90137FF03C0F195E19506
:101E5000F10924E0EE0FFF1F2A95E1F7EF3FF105AE
:101E600019F014F0EFEFF0E09A0157FF03C031953D
:101E70002195310994E0220F331F9A95E1F72E172F
:101E80003F070CF4F901EE0DFF1DEF3FF10519F0CE
:101E900010F0EFEFF0E02E2F2095382F320F08F4DE
:101EA0003FEF832F0F91FF90EF900895EF92FF92F5
:101EB0000F93970195E0099F200D311D11242F3FAD
:101EC000310519F010F02FEF30E02095382F320F48
:101ED00008F43FEF832F0F91FF90EF90089522E8D1
:101EE000241B08F420E0620F08954095282F429F9C
:101EF000412D1124842F08950F931F9310E0F801B2
:101F0000EE0FFF1FE758FE4F9081905797FD919578
:101F1000000F111FF801E658FE4FE081F0E0B09786
:101F2000DF01AA0FBB1F8D010E0F1F1F2003D00161
:101F3000219FB00D1124E8E3F0E0E91BF10997FDC2
:101F4000F3959F01220F331F89010E0F1F1F4003BE
:101F50009001419F300D11242A0F3B1F37FF02C013
:101F600021583F4F220F232F221F330B620F1F9147
:101F70000F9108950F931F93522F10E0F801EE0F69
:101F8000FF1FE658FE4FE081F0E0B097EE0FFF1F15
:101F90009F015203D001539FB00D1124000F111F58
:101FA000F801E758FE4F008110E000571109000FBB
:101FB000111F40039001419F300D11242A0F3B1F38
:101FC00037FF02C021583F4F220F232F221F330B10
:101FD000620F1F910F9108950F931F93522F10E0DE
:101FE000F801EE0FFF1FE658FE4FE081F0E0B097DA
:101FF0009F015203D001539FB00D1124000F111FF8
:10200000F801E758FE4F008110E000571109400326
:102010009001419F300D11242A0F3B1F37FF02C052
:1020200021583F4F220F232F221F330B620F1F9186
:102030000F910895EF920F931F9393E0099F8001F2
:102040001124159507956E2D600F1F910F91EF903C
:102050000895A22F50E0FA01EE0FFF1FE658FE4F41
:102060009081905297FD9195440F551FFA01E758C2
:10207000FE4F3081232F30E02A1B3109290F311DFB
:1020800097FD3A95620F0895E42FF0E0EE0FFF1FE1
:10209000E658FE4F6081621B0895E42FF0E0EE0FDA
:1020A000FF1FE758FE4F6081621B0895622F08955D
:1020B000E42FF0E0EE0FFF1FE758FE4F408134EEB3
:1020C000439F412D1124E82FF0E050E0445E5F4F24
:1020D000DA01A21BB1099D01B7FF03C0319521951B
:1020E000310993E0220F331F9A95E1F7AF01421BAC
:1020F000530B9A0157FF02C020E030E0582F259F74
:10210000212D1124822F0895E42FF0E0EE0FFF1F00
:10211000E758FE4F408134EE439F412D1124E72FB5
:10212000F0E050E0445E5F4FDA01A21BB1099D016F
:10213000B7FF03C031952195310993E0220F331F7A
:102140009A95E1F7AF01421B530B9A0157FF02C06A
:1021500020E030E0279F212D1124722F0895FC01EB
:102160009B01009721F477FF2BC080E80895AC0114
:1021700097FF04C044275527481B590BB901640F2A
:10218000751F37FD0CC0241B350BC901A5E0880F56
:10219000991FAA95E1F70E94792880E20CC0CB0133
:1021A00065E0880F991F6A95E1F7BA01621B730B0E
:1021B0000E94792880E6861BF7FF03C08195089569
:1021C00080E00895EF920F93CF93DF93D72FC82F1E
:1021D000C9010E19BA010E94AF10602F681B7D2F34
:1021E0008C2FDF91CF910F91EF9008950F93CF93A4
:1021F000DF93D72FC82FC901BA010E94AF10682FF3
:10220000600F7D2F8C2FDF91CF910F910895EF926A
:102210000F931F93CF93DF93D62FC72F182FC9018A
:102220000E19010FBA010E94AF10081B202F219F29
:10223000212D1124822F6D2F7C2FDF91CF911F91A3
:102240000F91EF900895EF920F931F93CF93DF9329
:10225000D62F172FC82FC9010E19070FBA010E94D8
:10226000AF10702F781B719F712D11246D2F8C2F43
:10227000DF91CF911F910F91EF900895FF920F93EF
:102280001F93CF93DF93F62ED72F182FC901C12F9D
:10229000C01BBA010E94AF10982F990F890FC81B5D
:1022A0002C2F219F212D1124822F6F2D7D2FDF9127
:1022B000CF911F910F91FF900895FF920F931F935D
:1022C000CF93DF93F62E172FD82FC901C72FC01B2E
:1022D000BA010E94AF10982F990F890F7C2F781B9D
:1022E000719F712D11246F2D8D2FDF91CF911F9133
:1022F0000F91FF9008956A9A8EB18B7F9EB1946082
:102300002FB7F894E3E8F2E033E0E235F30789F021
:10231000319148E09EB9000000C037FF8EB9330FFD
:10232000000000C000C000C08EB900C04A9591F7FF
:10233000EBCF2FBF8FE594E00197F1F700C00000CD
:102340000895E1EDF3E0438120E1421B08F440E011
:102350008181628190E00C94E21CE1EDF3E0438125
:1023600020E1420F08F44FEF8181628190E00C94EC
:10237000E21CE1EDF3E0628120E1621B08F460E021
:102380008181438190E00C94E21CE1EDF3E06281F5
:1023900020E1620F08F46FEF8181438190E00C949B
:1023A000E21CE1EDF3E0818190E0438162810897D6
:1023B0000C94E21CE1EDF3E0818190E043816281C5
:1023C00008960C94E21C8091D103869586958150E5
:1023D00009F484E20C94CC1C8091D10386958695F7
:1023E0008F5F853208F081E00C94CC1C1F93CF9353
:1023F000DF93CDB7DEB767970FB6F894DEBF0FBE99
:10240000CDBF4B8B5C8B6D8B7E8B8F8B86E09E0163
:10241000235F3F4FD901E82F1D92EA95E9F795E038
:10242000FE017396D90101900D929A95E1F7F90199
:10243000DE01179601900D928A95E1F7CE0107967D
:102440000E94CA2481113EC086E0FE013796DE015B
:10245000119601900D928A95E1F7FF81E8856A85D2
:102460007B856115710531F0EF3F31F481E0FF3F6D
:1024700019F403C081E001C080E080FD23C02091F9
:102480000D0430E0C90101968770992740913E0400
:1024900050E08417950779F1F983EA837D836C8393
:1024A00096E0929FD001939FB00D1124A25FBB4F85
:1024B000FE01319601900D929A95E1F780930D04FB
:1024C0000E942B2416E080913E0490910D04891700
:1024D000F9F0189FC0011124825F9B4F0E94CA240B
:1024E0008823B1F080913E0490E00196877099278F
:1024F00080933E04E8CF0E94962610920D0410921D
:102500003E04E7E0F4E086E0DF011D928A95E9F7FA
:1025100067960FB6F894DEBF0FBECDBFDF91CF91A7
:102520001F910895209156033091570328173907BA
:1025300071F09093570380935603E0919103F091CB
:102540009203309721F00084F185E02D09940895DD
:1025500020915403309155032817390771F0909357
:10256000550380935403E0919103F09192033097C7
:1025700021F00680F781E02D09940895E091910300
:10258000F0919203309721F00190F081E02D0994B1
:1025900080E008950F931F93CF93DF93C42FD22F22
:1025A000FC0182818823C9F0409381020E94ED21C1
:1025B000909353038093520380E28C0F883008F08D
:1025C0005EC0C77081E001C0880FCA95EAF7DF914D
:1025D000CF911F910F910C94AC26809181024813EA
:1025E0003EC080915203909153030E94DE21883CAB
:1025F0009105A8F510E21D0FCD17B9F080E28C0F00
:10260000883040F4C77081E001C0880FCA95EAF7AE
:102610000E94A126183048F481E09D2F977001C0D8
:10262000880F9A95EAF70E94AC26802F0E94F52623
:10263000093349F4FFEF27EE83E0F150204080405A
:10264000E1F700C00000802F0E94B6261830B8F4D1
:10265000D77081E001C0880FDA95EAF70AC080E2FE
:102660008C0F883060F4C77081E001C0880FCA9574
:10267000EAF7DF91CF911F910F910C94A126DF9182
:10268000CF911F910F910895882311F0FA0101C095
:10269000FB0109940C94A60E0C94B20E45E050E098
:1026A0006CE170E081ED93E00C94CE27E1EDF3E076
:1026B000248130E1230F08F42FEF24830C944E1370
:1026C000E1EDF3E0248130E1231B08F420E02483D2
:1026D0000C944E13E1EDF3E085E3808380911501C6
:1026E00090911601A091170181839283A3838FE7B4
:1026F00084830C944E13482F982F46FD9095E92F14
:10270000EF739F7046FD9F5FE295EF70EE0FF0E074
:10271000E85EFE4F2181299F802D212D1124829575
:102720008F702295207F822B3081982F930F892FD5
:1027300047FD819580580895BC018230910508F4C9
:102740000895613E8EE1780748F49B0195E0369547
:1027500027959A95E1F748E0420F01C04FEF91E0CD
:10276000242F30E0290F311D35952795229FF00148
:10277000239FF00DF00D11246E177F0718F44FEF13
:10278000420F04C02F3F39F091E0920F491740F7F4
:102790008FEF890F08958FEF08950F93CF93DF93F5
:1027A000D72FC82F47FD4195E8E3F0E0CF01841B08
:1027B000910947FD9395889FB001899F700D700D19
:1027C0001124229FC001239F900D900D1124860F8C
:1027D000971F0E949C13682F660F860F682F600F4B
:1027E0007D2F8C2FDF91CF910F91089520E030E065
:1027F000869F212D969F200D311D1124C90108951A
:10280000CF92DF92EF92FF920F931F93CF93DF93BC
:10281000F62E472FE82FF0E0711106C0E65FFC4F5F
:102820008491782F682F73C0272F30E0E65FFC4F2C
:10283000E491FE2F0E2F10E056E0659FC001112499
:10284000CFEFD0E0BE010E9465285BEA5603C001CD
:10285000579F900D11248F0D911D8F0D911D982F55
:10286000990F980F7E01E21AF30AE09ED001E19ED3
:10287000B00DF09EB00D11248B2F499FA0011124A3
:10288000452F55277E01E41AF50AE09EA001E19E3E
:10289000500DF09E500D11246E01C91AD108C29E30
:1028A0007001C39EF00CD29EF00C11242F2D332703
:1028B000C21BD30BC09F9001C19F300DD09F300D24
:1028C0001124932F6230710591F048F46115710560
:1028D000E1F061307105B9F49E2FE52F16C0643028
:1028E000710569F040F06630710579F00CC09E2FDB
:1028F000EB2F832F0AC0EB2F8F2F952F06C09B2F16
:102900008E2FE32F02C09B2F852F7E2F692FDF9103
:10291000CF911F910F91FF90EF90DF90CF9008958E
:10292000DF92EF92FF920F931F93CF93DF93EC010F
:10293000FC01ED5FFD4F9081692381F1D090D303BD
:102940000091D4031091D203E12EF12C0E94A02714
:10295000282FC7018C549F4F68E671E00E947928A8
:102960008E199F0997FD039695958795959587955F
:102970002370612F289F600D11247D2D802F0E94D0
:102980000014462F282F672FCE01DF91CF911F9182
:102990000F91FF90EF90DF900C944C13DF91CF914B
:1029A0001F910F91FF90EF90DF9008951F93CF93A9
:1029B000DF93FC01ED5FFD4F20816223A9F0EC0164
:1029C0000E94A027182F0E94A027612F782F8091A6
:1029D000D4030E940014462F282F672FCE01DF91C9
:1029E000CF911F910C944C13DF91CF911F910895BB
:1029F000E8EDF0E080818E7F80831092E2001092FB
:102A0000DA001092E100A0EEB0E08C9181608C932E
:102A100080818F77808319BCA7EDB0E08C918E7F89
:102A20008C9380818F7E80831092B6030895BC01C1
:102A300084E00C943220BC0183E00C9432201F927D
:102A40000F920FB60F9211242F933F934F935F93E2
:102A50006F937F938F939F93AF93BF93CF93DF93A6
:102A6000EF93FF93C091E900CF708091EC00D82FD5
:102A7000D17080FDD0E81092E9008091F000877F4E
:102A80008093F00078940E941B1D1092E9008091C1
:102A9000F00088608093F000CD2BCF70C093E900E8
:102AA000FF91EF91DF91CF91BF91AF919F918F9166
:102AB0007F916F915F914F913F912F910F900FBE3A
:102AC0000F901F9018952091E4003091E50095E655
:102AD0004091EC00842F817040FF23C08091E8007A
:102AE00080FD1DC08091C303882399F0853099F043
:102AF0008091EB0085FD11C04091E4005091E5000C
:102B00002417350729F3915011F09A01E1CF84E0A1
:102B1000089582E0089583E0089581E0089580E0BB
:102B200008954091E80042FFDDCF08958091C503EC
:102B300087FF11C08091E80082FD05C08091C3032A
:102B40008111F8CF11C08091E8008B770BC0809184
:102B5000C303882349F08091E80080FFF8CF80917B
:102B6000E8008E778093E8000895982F973068F5F5
:102B70009093E900981739F07091EC002091ED00E6
:102B80005091F00003C0242F762F50E021FD02C0A9
:102B90009F5FECCF3091EB003E7F3093EB003091A4
:102BA000ED003D7F3093ED003091EB0031603093CC
:102BB000EB007093EC002093ED005093F000209117
:102BC000EE0027FDE5CF80E008958F708093E90047
:102BD00081E00895CF92DF92EF92FF920F931F93BF
:102BE000CF93DF93C8EDD0E088818F7E8883E7EDB7
:102BF000F0E080818160808384E082BF81E0809307
:102C0000B60388818E7F888302EE10E0F80110827F
:102C10001092DA0081EEC82ED12CF6011082888144
:102C20008F77888388818068888388818F7D888377
:102C300019BC1092C3031092C4031092C2031092E5
:102C4000C10390EEE92EF12CF70180818B7F808308
:102C500088818160888342E060E080E00E94B51551
:102C6000F60180818E7F8083F8018081816080837E
:102C7000808188608083F70180818E7F8083888156
:102C800080618883DF91CF911F910F91FF90EF902A
:102C9000DF90CF9008951F920F920FB60F921124DC
:102CA0002F933F934F935F936F937F938F939F9354
:102CB000AF93BF93EF93FF938091E10082FF09C030
:102CC0008091E20082FF05C08091E1008B7F8093BC
:102CD000E1008091DA0080FF2AC08091D80080FF57
:102CE00026C08091DA008E7F8093DA008091D9002F
:102CF00080FF18C080E189BD82E189BD09B400FE72
:102D0000FDCF81E08093C3038091B60381110FC092
:102D10000E94F8140E94EA158091E200846080937A
:102D2000E20005C019BC1092C3031092B603809153
:102D3000E10080FF17C08091E20080FF13C0809106
:102D4000E2008E7F8093E2008091E20080618093B8
:102D5000E2008091D80080628093D80019BC85E0A1
:102D60008093C3038091E10084FF32C08091E20030
:102D700084FF2EC080E189BD82E189BD09B400FED7
:102D8000FDCF8091D8008F7D8093D8008091E100A5
:102D90008F7E8093E1008091E2008F7E8093E2003D
:102DA0008091E20081608093E2008091C4038823D7
:102DB00011F084E007C08091E30087FD02C081E04C
:102DC00001C083E08093C3030E9496260E94BE1236
:102DD0008091E10083FF27C08091E20083FF23C040
:102DE0008091E100877F8093E10082E08093C303BC
:102DF0001092C4038091E1008E7F8093E100809166
:102E0000E2008E7F8093E2008091E20080618093F7
:102E1000E20042E060E080E00E94B5158091F000A1
:102E200088608093F000FF91EF91BF91AF919F91E7
:102E30008F917F916F915F914F913F912F910F9063
:102E40000FBE0F901F9018952091CB033091CC03AB
:102E50002617370748F06115710539F42091E8000D
:102E60002E772093E80001C0B901FC0120E0611534
:102E7000710579F18091C3038823F1F18530F1F177
:102E80008091E80083FD3CC08091E80082FD2EC067
:102E90008091E80080FFEBCF2091F3008091F20059
:102EA00090E0922B6115710551F08830910538F44E
:102EB00021912093F100615071090196F3CF21E037
:102EC000089709F020E08091E8008E778093E80071
:102ED000CECF2111CFCF0AC08091C303882361F0E8
:102EE000853061F08091E80083FD0AC08091E800A0
:102EF00082FFF2CF80E0089582E0089583E0089594
:102F000081E00895CF93DF93CDB7DEB760970FB61A
:102F1000F894DEBF0FBECDBF84B7877F84BF0FB6E6
:102F2000F894A89580916000886180936000109269
:102F300060000FBE90E080E80FB6F89480936100C7
:102F4000909361000FBE85B7806885BF85B78068A4
:102F500085BF0E94F8140E94EA158091E200846007
:102F60008093E20078948091C3038823A1F01091AC
:102F7000E9001F709091EC00892F817090FD80E82E
:102F8000182B1092E9008091E80083FD0E941B1D20
:102F90001F701093E90082E084BD93E095BD9AEF25
:102FA00097BD80936E0080E30E94310381E30E940D
:102FB000310382E30E94310383E30E94310386ECF4
:102FC0000E94310305E211E0F80181918F010E9416
:102FD0003103F1E003331F07B9F7E1E8F3E0A4E9B7
:102FE000B3E0119211921D921D9223E0EB38F2078B
:102FF000C1F70E9448033FEF46E781E0315040406F
:103000008040E1F700C000000E94480380919403D3
:1030100080FF08C06FEF7FEF80E090E00E94FC2708
:103020000E94942180E090E00E94C8278C3E9E4F31
:1030300011F00E9477221092D603EFEEF3E08FEFAB
:103040009FEF8193919323E0EF3FF207D1F7109226
:103050005803E1E7F3E08FEF9FEF8193919333E023
:10306000E138F307D1F780E090E00E94C8278C3E5A
:103070009E4F21F00E9477220E946A1345E050E0A3
:103080006CE170E081ED93E00E94B0278091D10364
:103090008C7F11F40E946A1380E090E00E94C827A0
:1030A0008C3E9E4F11F00E94772282E090E00E94B9
:1030B000C0278093AB030E94662290939003809375
:1030C0008F0383E090E00E94C027682F70E080E0CB
:1030D00090E00E94212486E091E0909392038093F7
:1030E0009103DD24D394CC24CA945EE9852E53E069
:1030F000952E60E1562E72E1672EE8E1AE2EB12CDE
:10310000F0E47F2E8091C303853009F036C08091B2
:10311000C303843009F1109293030FB6F894A89575
:10312000A09260000FBE7092600083B7817F8460C0
:1031300083BF83B7816083BF7894889583B78E7F80
:1031400083BF0FB6F894A895809160008861809342
:103150006000109260000FBE8091C203882391F23C
:103160000E944803E4E9F3E081919191892B09F0F1
:1031700043C18E169F06C1F7C5CF0E944803ECEAF3
:10318000F3E0A4E9B3E000E010E0702F2D913D9151
:103190008191919182279327009779F160E0EE2445
:1031A000E394F12CA70148235923452B09F16F83A0
:1031B00078872E213F2181E0232B09F480E0898745
:1031C0000E94ED218160782F9B878A874F815885E7
:1031D00069858B850E94F611000F111FF801E455D7
:1031E000FC4F80819181E826F926F182E08219C0A6
:1031F0006F5FEE0CFF1C6E30A9F60F5F1F4F05309E
:10320000110519F6CC86CD861E860E94ED218160BF
:10321000782F988B8F874C855D856E8588890E9475
:10322000F61186E0E4EAF3E0DE01119601900D92DA
:103230008A95E1F7E090A603F090A7030091A80318
:103240001091A9031092A6031092A7031092A8034D
:103250001092A903E11003C0FF2009F44FC0809130
:10326000A2039091A3030E94DE219C019091A103EF
:10327000992309F4D5C02333310508F43FC09F3F9B
:1032800019F09F5F9093A103EE2061F00E940C2142
:103290001E1414F09FEF01C091E0899F802D11242E
:1032A0008093A603FF2061F00E940C211F1414F0EC
:1032B0009FEF01C091E0899F802D11248093A70387
:1032C0003091A6033323D1F02091A7032223B1F03C
:1032D00045EB3403C0011124992319F09093A60300
:1032E00002C0D092A60335EB2303C0011124992319
:1032F00019F09093A70302C0D092A703011103C055
:10330000112309F44FC080919F039091A0030E9464
:10331000DE219C0190919E03992309F486C02536F5
:10332000310508F43FC09F3F19F09F5F90939E03C3
:10333000002361F00E94EA20101614F09FEF01C0F4
:1033400091E0899F802D11248093A803112361F0BF
:103350000E94EA20111614F09FEF01C091E0899FAE
:10336000802D11248093A9033091A8033323D1F039
:103370002091A9032223B1F045EB3403C0011124AD
:10338000992319F09093A80302C0D092A80335EBBB
:103390002303C0011124992319F09093A90302C0BB
:1033A000D092A9038091A60381110BC08091A7033D
:1033B000811107C08091A803811103C08091A903E6
:1033C00081110E94F921EB82FC820D831E8386E02D
:1033D000FE013196A4EAB3E001900D928A95E1F7DF
:1033E0000E94BE129091AA03891709F48BCE0E9405
:1033F000BE128093AA0386CE59BC69BC09B400FEF4
:10340000FDCF8091D8008F7D8093D8008091E0001F
:1034100082608093E0008091E00081FDFCCF72CE5D
:103420002D32314008F02DCF69CF2D32314008F0D8
:103430007CCFB8CF2F923F924F925F926F927F9244
:103440008F929F92AF92BF92CF92DF92EF92FF92B4
:103450000F931F93CF93DF93CDB7DEB727970FB6A8
:10346000F894DEBF0FBECDBF282E4B012091120174
:103470008EE0289F802D11248E83182F125F163422
:1034800008F015E43091D60339839E81911708F036
:1034900077C08E81682E712CF301ED5FFD4F908116
:1034A00080911301892309F467C03090D2034090C2
:1034B000D303522C1F82C301880F991FDC01A75828
:1034C000BE4FBB83AA83C301880F991FFC01E65836
:1034D000FE4FFD83EC83F9815F16E0F5E52CF12CBE
:1034E000AA81BB81CC90D12CF701EA52FC4F81819B
:1034F000C81AD108AC81BD81AC90B12C8185A81AC5
:10350000B108CC9C9001CD9C300D300D1124AA9CAB
:10351000C001AB9C900D900D1124820F931F0E944F
:103520009C13082FF701EE0FFF1FEA52FC4F60912A
:10353000D503818D928D0E94F6137C019501A60121
:10354000632D742D8F81F4010995362E472E8F83BC
:103550005394C1CF2091D4038F81382F329F312DC6
:103560001124832F632D742D0E940014462F282FC1
:10357000672FC3010E944C138E818F5F8E8385CF8E
:1035800081E0153408F080E027960FB6F894DEBF8E
:103590000FBECDBFDF91CF911F910F91FF90EF90A4
:1035A000DF90CF90BF90AF909F908F907F906F9063
:1035B0005F904F903F902F900895CF92DF92EF92BF
:1035C000FF920F931F93CF93DF936C01C091120171
:1035D0008EE0C89FC02D1124DEE0DC0FD63408F049
:1035E000D5E42091D50330E040E050E06FEF7FEF6D
:1035F00080E090E00E9402288901CD17E8F5EC2ECA
:10360000F12CF701ED5FFD4F90818091130189232B
:1036100089F19091D603915097FD15C0492F092E3D
:10362000000C550BFA01EA52FC4F8189C813F3CF05
:10363000440F551FFA01EA52FC4F218D328D20179D
:10364000310748F701C098016091D503C9010E9474
:10365000F613AC016091D2037091D3038091D4032F
:10366000F60109950E940014462F282F672FC701E5
:103670000E944C13CF5FC1CF81E0D53408F080E0C9
:10368000DF91CF911F910F91FF90EF90DF90CF903E
:1036900008959F92AF92BF92CF92DF92EF92FF92E6
:1036A0000F931F93CF93DF936C01C09112018EE0B3
:1036B000C89FC02D1124DEE0DC0FD63408F0D5E41D
:1036C0006091D503669566958091CD039091CE0368
:1036D0000E94F613182F80E4810F0E947B1390E85C
:1036E000F92EF80E812F0E947B1320E8922E980E5F
:1036F000CD1700F5AC2EB12CF501ED5FFD4F90819B
:10370000809113018923A1F06091D2037091D303BA
:103710008091D403E12E0C2F292D4F2DF601099510
:103720000E940014462F282F672FC5010E944C13BA
:10373000CF5FDECF81E0D53408F080E0DF91CF911C
:103740001F910F91FF90EF90DF90CF90BF90AF90BF
:103750009F9008956F927F928F929F92AF92BF92A7
:10376000CF92DF92EF920F931F93CF93DF933C01A1
:10377000C09112018EE0C89FC02D1124DEE0DC0F45
:10378000D63408F0D5E46091D50366958091CD03D9
:103790009091CE030E94F613182FCD1708F044C065
:1037A0008C2E912CF401ED5FFD4F908180911301DF
:1037B0008923C1F1F401EE0FFF1FE758FE4FC080CF
:1037C000D12C80E7C81AD108F401EE0FFF1FE6588C
:1037D000FE4FA080B12CE0E2AE1AB108CC9C900163
:1037E000CD9C300D300D1124AA9CC001AB9C900DD6
:1037F000900D1124820F931F0E949C13082F60913B
:10380000D2037091D3038091D403E12E9501A601D8
:10381000F30109950E940014462F282F672FC40139
:103820000E944C13CF5FB9CF81E0D53408F080E01F
:10383000DF91CF911F910F91EF90DF90CF90BF90CC
:10384000AF909F908F907F906F900895CF92DF926E
:10385000EF92FF920F931F93CF93DF936C01C09170
:1038600012018EE0C89FC02D1124DEE0DC0FD6349B
:1038700008F0D5E46091D50366958091CD039091D1
:10388000CE030E94F613182FCD1778F5EC2EF12CED
:10389000F701ED5FFD4F908180911301892319F1AC
:1038A000F701EE0FFF1FE658FE4F208130E0205257
:1038B0003109F701EE0FFF1FE758FE4F408150E03E
:1038C000405751096091D2037091D3038091D40382
:1038D000012FF60109950E940014462F282F672F0B
:1038E000C7010E944C13CF5FCFCF81E0D53408F0E1
:1038F00080E0DF91CF911F910F91FF90EF90DF90CB
:10390000CF900895DF92EF92FF920F931F93CF9382
:10391000DF937C01C09112018EE0C89FC02D11245D
:10392000DEE0DC0FD63408F0D5E46091D50366956F
:1039300066958091CD039091CE030E94F613D82E08
:10394000CD17F0F40C2F10E0F801ED5FFD4F9081E2
:1039500080911301892391F06091D2037091D30378
:103960008091D4032D2D4C2FF70109950E9400144E
:10397000462F282F672FC8010E944C13CF5FE0CF3E
:1039800081E0D53408F080E0DF91CF911F910F9155
:10399000FF90EF90DF9008959091D103937089F09C
:1039A000811102C0946007C0853210F0906903C095
:1039B000880F880F982B9093D103109211010C94CB
:1039C0004E1308959091D103937041F08093D203E8
:1039D0006093D3034093D4030C944E130895EF9255
:1039E000FF920F931F93CF93DF937C018B010E9473
:1039F0006315811119C0E70101151105A1F080912E
:103A0000E80085FD0AC08091E8008E778093E80089
:103A10000E946315882381F307C089918093F10088
:103A200001501109E9CF80E0DF91CF911F910F91F3
:103A3000FF90EF9008951F93CF93DF93CDB7DEB73C
:103A4000AA970FB6F894DEBF0FBECDBFE5ECF3E04A
:103A50008091F100819323E0ED3CF207C9F780915A
:103A6000C603833009F460C030F4813071F08230D5
:103A700009F49AC0B1C08A3009F486C08B3009F4C9
:103A80006BC0893009F0A8C020C08091C503813A7D
:103A900009F0A2C08091E800877F8093E8008091C0
:103AA000C9039091CA03892B21F468E089EB93E064
:103AB00003C060E080E090E070E00E9424178091F5
:103AC000E8008B778093E80087C08091C50381323E
:103AD00009F082C08091C9039091CA03029708F04F
:103AE0007BC08091E800877F8093E8008091E800A8
:103AF00082FD05C08091C3038111F8CF6DC0209174
:103B0000F3008091F20090E0922B029729F48091CB
:103B1000F1008B7F813021F48091F1008093B80314
:103B20008091E8008B7754C08091C503813A09F0F9
:103B300053C08091C9039091CA03892B09F04CC0EE
:103B40008091E800877F8093E8008091E80080FF03
:103B5000FCCF8091100137C08091C5038132E1F51F
:103B60008091C9039091CA03892BB1F58091E80037
:103B7000877F8093E8000E9496158091C703809309
:103B800010010E94962628C08091C503813221F53C
:103B90008091E800877F8093E8000E9496158091CD
:103BA000C8038093B70318C08091C503813AA1F47C
:103BB0008091E800877F8093E8008091E80080FF93
:103BC000FCCF8091B7038093F1008091E8008E775D
:103BD0008093E8000E9496158091E80083FFCCC195
:103BE0008091C5039091C603492F50E04A3051059A
:103BF00008F0C2C1FA01E556FF4F0C948D288038B9
:103C000021F0823809F0B8C108C08091C1039091B9
:103C1000C203992389F082600FC08091C9038F701D
:103C2000873008F0A9C18093E9008091EB0085FB03
:103C3000882780F91092E9009091E800977F90938F
:103C4000E8008093F1001092F10065C1282F2D7FCC
:103C500009F092C1882319F0823061F08DC1809102
:103C6000C703813009F088C1933009F080E0809368
:103C7000C2032EC08091C70381112AC08091C9035D
:103C80008F702FEF280F263008F076C18093E9005F
:103C90002091EB0020FF1CC0933021F48091EB00B9
:103CA000806214C09091EB0090619093EB0021E052
:103CB00030E0A90102C0440F551F8A95E2F74093F6
:103CC000EA001092EA008091EB0088608093EB009C
:103CD0001092E9008091E800877F20C181114CC1DA
:103CE0001091C7031F778091E3008078812B809328
:103CF000E3008091E800877F8093E8000E9496159A
:103D00008091E80080FFFCCF8091E3008068809381
:103D1000E300111102C082E001C083E08093C3037D
:103D20002BC18058823008F027C18091C703909141
:103D3000C8038C3D53E0950779F583E08A838AE2D6
:103D400089834FB7F894DE01139620E03EE051E2FC
:103D5000E32FF0E050935700E49120FF03C0E29579
:103D6000EF703F5FEF708E2F90E0EA3010F0C79653
:103D700001C0C0968D939D932F5F243149F74FBFAB
:103D80008091E800877F8093E8006AE270E0CE01CE
:103D900001960E942417AEC04091C9035091CA03F6
:103DA000292F332723303105A9F068F4213031055C
:103DB00009F4F1C02230310509F0DEC08BE390E058
:103DC000EBECF4E044C02132310521F1223231051F
:103DD00071F1D2C0992781309105A1F058F0029776
:103DE00009F0CAC0E8E1F5E0E4918E2F90E0E8E147
:103DF000F5E02AC0E6E4F5E0E4918E2F90E0E6E4F9
:103E0000F5E022C0ECE2F5E0E4918E2F90E0ECE2E8
:103E1000F5E01AC04115510509F4C2C04130510501
:103E200009F0AAC089E090E0E6EFF4E010C0411587
:103E3000510509F4BAC04130510509F09DC081E82F
:103E400090E0EAE0F4E003C0009709F495C0209107
:103E5000E800277F2093E8002091CB033091CC032A
:103E60008217930708F49C0140E02115310589F180
:103E70008091C303882309F43DC08530D9F1809136
:103E8000E80083FD37C08091E80082FD2FC080915B
:103E9000E80080FFEACF4091F3008091F20090E0CB
:103EA000942B2115310559F08830910540F4449147
:103EB0004093F1003196215031090196F2CF41E053
:103EC000089709F040E08091E8008E778093E80041
:103ED000CCCF4111CDCF0AC08091C303882351F0CC
:103EE000853041F08091E80083FD04C08091E800B6
:103EF00082FFF2CF8091E8008B778093E8003CC08E
:103F00008038D1F58091E800877F8093E800809128
:103F1000C4038093F1008091E8008E778093E800DD
:103F20000E94961529C0811127C08091C7039091E6
:103F3000C8039927029704F58091E800877F809352
:103F4000E8001091C7031093C4030E949615111145
:103F500006C08091E30087FD02C081E001C084E0DB
:103F60008093C30342E061EC81E00E94B51542E218
:103F700061EC82E00E94B5158091E80083FF1AC0D1
:103F80008091E800877F8093E8008091EB00806259
:103F90008093EB000FC082E190E0E6E0F5E057CFC0
:103FA00089E090E0EDEDF4E052CF80E490E0EBE8C2
:103FB000F4E04DCFAA960FB6F894DEBF0FBECDBF8A
:103FC000DF91CF911F9108958091B803089522E069
:103FD0002093E9002FEF3091E800215035FD06C015
:103FE00035ED3A95F1F700002111F5CF2091E80069
:103FF00025FF0BC040E050E066E070E00E94EF1C3F
:104000008091E8008E778093E8000895CF93DF9346
:1040100021E02093E9002FEF3091E800215035FD99
:1040200006C035ED3A95F1F700002111F5CF20914A
:10403000E80025FF14C0EC0140E050E068E070E0CB
:104040000E94EF1C8091E8008E778093E80088E062
:10405000FE01A9EBB3E001900D928A95E1F7DF91A3
:10406000CF910895CF93DF9300D01F92CDB7DEB7E5
:104070009091C303943019F589837B836A8382E02E
:104080008093E9008FEF9091E800815095FD06C084
:1040900095ED9A95F1F700008111F5CF8091E80038
:1040A00085FF0DC040E050E063E070E0CE01019676
:1040B0000E94EF1C8091E8008E778093E8000F90BB
:1040C0000F900F90DF91CF910895803F39F4809148
:1040D000A70387FF6AC01092A70367C0813F29F436
:1040E0008091A7031816BCF360C09091A603823F8D
:1040F00029F497FF5AC01092A60357C0833F19F4C2
:104100001916CCF352C09091A803893F31F41916C7
:104110000CF04BC01092A80348C08A3F19F497FFD7
:1041200044C0F8CF8B3F39F48091A90387FF3DC08D
:104130001092A9033AC08C3F29F48091A903181664
:10414000BCF333C0843F21F48091A5038E7F17C058
:10415000853F21F48091A5038D7F11C0863F21F416
:104160008091A5038B7F0BC0873F21F48091A5032D
:10417000877F05C0883F31F48091A5038F7E8093AF
:10418000A50313C08D3F21F4809179048E7F0BC06D
:104190008E3F21F4809179048D7F05C08F3F29F4F3
:1041A000809179048B7F809379048091A60381119B
:1041B00006C08091A703811102C01092A1038091D3
:1041C000A803811106C08091A903811102C0109239
:1041D0009E0308958091790480FD16C081FD16C06C
:1041E00082FD18C080919E03882391F0883290F45C
:1041F00028E0829FC001112468E270E00E947928C3
:10420000862F672B29F007C082E0089584E0089587
:1042100081E0089588E008958091790480FD14C0BC
:1042200081FD14C082FD16C08091A103882381F016
:10423000843180F422E3829FC001112464E170E0A4
:104240000E947928862F08958CE0089589E10895C9
:1042500085E0089582E30895803F21F40E940C21B7
:10426000819504C0813F29F40E940C218093A7030B
:104270000895823F21F40E940C21819504C0833F60
:1042800029F40E940C218093A6030895893F19F414
:104290000E94EA2005C08A3F31F40E94EA208195FD
:1042A0008093A80308958B3F21F40E94EA20819512
:1042B00004C08C3F29F40E94EA208093A90308954A
:1042C000843F21F48091A503816017C0853F21F4CC
:1042D0008091A503826011C0863F21F48091A503DF
:1042E00084600BC0873F21F48091A503886005C0DE
:1042F000883F31F48091A50380618093A5030895E0
:104300008D3F21F48091790481600BC08E3F21F4B0
:1043100080917904826005C08F3F29F480917904EF
:10432000846080937904089581E08093E00080E2C6
:104330008093D8001092C9008FE19EE40197F1F7B5
:1043400000C0000087E090EBDC0180937A0490933A
:104350007B04A0937C04B0937D049CE088E10FB6BD
:10436000F894A895809360000FBE90936000FFCFF3
:1043700078941F920F920FB60F9211248F939F93F0
:10438000AF93BF938091750490917604A0917704C8
:10439000B09178040196A11DB11D8093750490938E
:1043A0007604A0937704B0937804BF91AF919F9166
:1043B0008F910F900FBE0F901F9018959C014FB7D3
:1043C000F8948091750490917604A0917704B0914F
:1043D00078044FBF821B930B08952FB7F8948091F8
:1043E000750490917604A0917704B09178042FBF62
:1043F00008950E94ED212091A603211104C020916F
:10440000A703222321F09093A3038093A20320917A
:10441000A803211104C02091A903222321F0909325
:10442000A00380939F03E0919103F0919203309752
:1044300049F082E08093A4030480F581E02D84EAB2
:1044400093E0099408951F920F920FB60F921124D2
:104450008F939F93AF93BF9380919303811113C068
:104460008091750490917604A0917704B0917804BE
:104470004196A11DB11D8093750490937604A0937D
:104480007704B0937804BF91AF919F918F910F9073
:104490000FBE0F901F9018959C01FC0132969FEF64
:1044A00080E04191461789F09F3F19F4411101C006
:1044B000982F8F5F8630A9F79F3F39F0F901E90FF8
:1044C000F11D97FDFA95628308950895CF9384E0D6
:1044D00090E00E94C027C82F81E290E00E94C02790
:1044E0002C2F30E0A901582BCA01CF9108956CEE12
:1044F0007EEF80E090E00E94FC2760E082E090E0A8
:104500000E94DE2760E083E090E00E94DE271092A8
:10451000710410927204109273041092740460E09B
:1045200084E090E00E94DE2760E081E290E00E945B
:10453000DE2760E085E090E00E94DE2760E086E014
:1045400090E00E94DE276FEF87E090E00E94DE2778
:1045500040E050E0BA0188E090E00E94F02760E07F
:104560008DE090E00E94DE2740E050E0BA0188E153
:1045700090E00E94F02760E087E190E00E94DE2753
:1045800040E050E0BA018CE190E00E94F02760E04A
:1045900080E290E00E94DE2740E050E0BA0188E12E
:1045A00090E00E94F02740E050E0BA018FE090E0F8
:1045B0000E94F02740E050E0BA0183E190E00C94C3
:1045C000F0278091700481111092700408959091E9
:1045D0006F0480916E04892B20916D04982F922B8B
:1045E0009093FF0380917004882389F0892B809336
:1045F000FF03E1E0F4E097E080E0915029F02191A1
:104600002223D9F38F5FF9CF81110E94E122E0913B
:104610009103F0919203309731F00280F381E02D05
:104620008FEF93E009940895BF92CF92DF92EF92BB
:10463000FF920F931F93CF93DF938C01C0908B0356
:10464000D0908C03E0908D03F0908E0380917104E4
:1046500090917204A0917304B0917404C82AD92A6D
:10466000EA2AFB2ACFE1D0E0D701C6010C2E04C014
:10467000B695A795979587950A94D2F780FD04C0C3
:10468000219790F7B12C07C0BC2EB8018C2F0E9447
:1046900024070197A9F38B2DDF91CF911F910F91E3
:1046A000FF90EF90DF90CF90BF900895CF93DF936E
:1046B000EC010E941423BE010E942407DF91CF91D8
:1046C00008952EE0929F800D1124682F66956695BF
:1046D0006695982F977085E0689FB001112440E09F
:1046E00050E080E0FB01E40FF51FE15CFB4F20810F
:1046F00030E0092E02C0369527950A94E2F7217022
:104700003327042E01C0220F0A94EAF7822B4F5F51
:104710005F4F4530510531F708952EE0929F800D8F
:104720001124E82FE695E695E695877051E001C0E3
:10473000550F8A95EAF785E0E89FF0011124E15CC6
:10474000FB4F20E030E070E04081CB01022E02C040
:10475000969587950A94E2F7817081958427852341
:10476000842781932F5F3F4F2530310569F70895E6
:1047700060938B0370938C0380938D0390938E03CF
:104780000C9479260F931F9341E050E060E070E0B5
:1047900004C0440F551F661F771F8A95D2F74095B6
:1047A00050956095709580918B0390918C03A091AA
:1047B0008D03B0918E038A019B01082319232A23BC
:1047C0003B23C901B8011F910F910C94B82320918C
:1047D0006C048095822380936C04982F977079F4F1
:1047E00030E0482F082E000C550B2417350739F000
:1047F0008595859585950E94C22310926C04089535
:104800000F931F9341E050E060E070E004C0440F5C
:10481000551F661F771F8A95D2F780918B03909161
:104820008C03A0918D03B0918E038A019B01082B0C
:10483000192B2A2B3B2BC901B8011F910F910C9406
:10484000B8236093710470937204809373049093FF
:1048500074040C94792680913E0490910D0489177C
:1048600019F08F5F8770FBCF08950F931F93CF933D
:10487000DF9380910C0482958F7009F05DC0809168
:104880000904882309F458C080913E0410910D0456
:104890006091070470910804C0910A04D0910B0440
:1048A00091E06F3F09F090E0292F06E0811709F4AD
:1048B00043C0209721F07F3F21F030E003C031E07A
:1048C00001C0322F90E030FD34C0089FF001099FF5
:1048D000F00D1124DF01A25FBB4F11963C9111979F
:1048E000371327C03C91361324C012963C9112977F
:1048F00031111FC013964D915C9114974C1B5D0BA9
:10490000483C5105B0F480910C048F708061809315
:104910000C04ED5EFB4F80818F708061808387E0A7
:1049200094E00E94CC08DF91CF911F910F910C94DD
:104930002B2401968770BACFDF91CF911F910F91F1
:1049400008950E945623292F2F70E92FE295EF70CA
:104950004E2F50E0FA013297EE30F105B8F4EB55E6
:10496000FF4F0C948D28803F99F018F4883E70F426
:104970000FC0843F59F40CC0883E50F0813F31F4A1
:1049800007C0822F869586958695089580E00895C4
:1049900081E008959F92AF92BF92CF92DF92EF9203
:1049A000FF920F931F93CF93DF93CDB7DEB761973D
:1049B0000FB6F894DEBF0FBECDBF8C0185E0F801C5
:1049C000DE011D9601900D928A95E1F7F801908124
:1049D0008181E280309107046091080440910A04CB
:1049E00050910B044115510531F06F3F31F421E036
:1049F0003F3F19F403C021E001C020E0F22FF17025
:104A00009F2E20FD23C1F801C380D48027E0A22E71
:104A100024E0B22EF0900904F601E41BF50BFF2010
:104A200009F4CEC020910C04E83CF10508F099C0CF
:104A3000422F407F09F051C0681311C039130FC0D5
:104A4000FE2CE1100CC02F70206120930C04C501D6
:104A50000E94CC0880910C04F801858337C1CD28D1
:104A600031F08F3F31F421E09F3F19F403C021E082
:104A700001C020E020FD03C021E02E2502C020E07F
:104A800030E0F22FF170FF2E20FF1DC020913E0478
:104A900040910D0456E0241709F4F6C030E0529F0F
:104AA000F001539FF00D1124E25FFB4F61818613EB
:104AB00006C06081961303C06281E61204C02F5FB6
:104AC0003F4F2770E8CFFE2CEE2009F4FFC0809105
:104AD0000C04816080930C0450C0681307C0391324
:104AE00005C0E11003C0F80125838DC09D878E8726
:104AF0008D859E850E94A124882369F1EE2059F1BD
:104B000020910C04822F82958F7090E0029774F0B0
:104B1000809107049091080498878F831986DB861B
:104B2000CA862C87CE0107960E94CC0886E0F80141
:104B3000A7E0B4E001900D928A95E1F70E94352438
:104B40000DC06817E1F09D878E878D859E850E9438
:104B5000A12481111EC0C8010E94CC08FF24F39437
:104B6000B5C0422F407F69F787E094E00E94CC08EF
:104B700086E0F50111928A95E9F7F12CA7C0391367
:104B8000E2CFE110E0CFF8012583C8010E94CC08F4
:104B900057C0EE2001F320910C04822F82958F7074
:104BA00090E002971CF280910704909108049A8388
:104BB00089831B82DD82CC822E83CE010196B4CF05
:104BC000E83CF105E8F5FE2CEE2029F2681327C039
:104BD000391325C020910C0420FD18C0822F829526
:104BE0008F70482F50E04115510581F0F801258361
:104BF0004F30510541F08F5F982F9295907F822F13
:104C00008F70892B8583C8010E94CC0886E0F8014B
:104C1000A7E0B4E001900D928A95E1F757C09D8717
:104C20008E878D859E850E94A12481117FCF8091E2
:104C30000C04816080930C04C8010E94CC0846C01B
:104C400086E0F50111928A95E9F740C0EE2009F45B
:104C500082CF9D878E878D859E850E94A124F82E08
:104C6000882309F478CF86E0F801A7E0B4E001904A
:104C70000D928A95E1F780910704909108040E94B3
:104C800056230E94352422C09D878E878D859E8560
:104C90000E945623292F22952F70223028F49F70CE
:104CA00039F0811105C00BC0243028F49F7049F4FD
:104CB000805E883020F0C8010E94CC089F2CF92C1F
:104CC00005C0F8019581907F99F7F9CF8F2D6196F6
:104CD0000FB6F894DEBF0FBECDBFDF91CF911F910D
:104CE0000F91FF90EF90DF90CF90BF90AF909F908B
:104CF000089510926E0410926D040E94E722E4EA77
:104D0000F3E086E0DF011D928A95E9F71092A10396
:104D100010929E03109279040E94F92180E090E0A5
:104D20000E94A81280E090E00C94921210926F04FE
:104D300086E0E1E0F4E0DF011D928A95E9F70C944A
:104D40007926882341F0809590916F048923809380
:104D50006F040C94E7220895882339F090916F0432
:104D6000892B80936F040C94E72208958823E1F146
:104D70009CEF980F913A60F4EFEFF3E09281891382
:104D800001C01282319644E0E530F407B9F714C04F
:104D900090E2980F983090F4877021E030E0A901FC
:104DA00002C0440F551F8A95E2F7CA018095909181
:104DB0006F04892380936F040C94E7229BE5980F7E
:104DC000933020F480E090E00C94A81298E5980FBE
:104DD000973120F480E090E00C949212803F20F014
:104DE0000E9465200C94F9210895CF93882309F43B
:104DF00059C0C82F8CEF8C0F813AF8F4E1E0F4E051
:104E000087E094E02191C21721F08E179F07D1F718
:104E10000EC0EFEFF3E085E094E02281C21301C001
:104E2000128231968E179F07C1F70E94E7226C2FDE
:104E30008FEF93E00E944C2210C080E28C0F8830EC
:104E400078F4C77081E090E001C0880FCA95EAF756
:104E500090916F04892B80936F04CF910C94E7227B
:104E6000EBE5EC0FE33040F4F0E0E85BFD4F8081D0
:104E700090E0CF910C94A812E8E5EC0FE73150F4E4
:104E8000F0E0EE0FFF1FE55BFD4F80819181CF9138
:104E90000C949212C03F30F08C2F0E942C21CF91A5
:104EA0000C94F921CF9108958F929F92AF92BF9267
:104EB000CF92DF92EF92FF92CF93DF93EC01688164
:104EC00079818A819B81611571058105910521F4A4
:104ED00064E279ED8BE597E02DE133EF41E050E0BE
:104EE0000E94022849015A019B01AC01A7EAB1E4E2
:104EF0000E9421286B017C01ACEEB4EFA501940166
:104F00000E942F28DC01CB018C0D9D1DAE1DBF1D05
:104F1000B7FF03C00197A109B04888839983AA838A
:104F2000BB839F77DF91CF91FF90EF90DF90CF9081
:104F3000BF90AF909F908F9008950E94542708953E
:104F400080E091E00E9454270895A0E0B0E08093B3
:104F5000000190930101A0930201B0930301089511
:104F6000DC01CB01FC01F999FECF06C0F2BDE1BD29
:104F7000F89A319600B40D9241505040B8F7089518
:104F8000F999FECF92BD81BDF89A992780B5089511
:104F9000A8E1B0E042E050E00C94B227DC01A40F9D
:104FA000B51F4150504048F0CB01840F951F2E9102
:104FB0000E94DF2741505040D0F70895262FF999DD
:104FC000FECF92BD81BDF89A019700B4021639F068
:104FD0001FBA20BD0FB6F894FA9AF99A0FBE089539
:104FE0000396272F0E94DF270E94DE27252F0E948D
:104FF000DF27242F0C94DF270196272F0E94DF271D
:105000000C94DE27052E97FB1EF400940E941928AD
:1050100057FD07D00E94342807FC03D04EF40C94AF
:10502000192850954095309521953F4F4F4F5F4F30
:10503000089590958095709561957F4F8F4F9F4F04
:1050400008950E945628A59F900DB49F900DA49F8F
:10505000800D911D11240895B7FF0C9421280E9402
:105060002128821B930B0895A1E21A2EAA1BBB1BB9
:10507000FD010DC0AA1FBB1FEE1FFF1FA217B30724
:10508000E407F50720F0A21BB30BE40BF50B661F3A
:10509000771F881F991F1A9469F7609570958095FE
:1050A00090959B01AC01BD01CF010895A29FB00175
:1050B000B39FC001A39F700D811D1124911DB29F4C
:1050C000700D811D1124911D0895AA1BBB1B51E178
:1050D00007C0AA1FBB1FA617B70710F0A61BB70B68
:1050E000881F991F5A95A9F780959095BC01CD010D
:1050F000089597FB072E16F4009407D077FD09D08A
:105100000E94652807FC05D03EF4909581959F4F3D
:105110000895709561957F4F0895EE0FFF1F0590DC
:10512000F491E02D0994FB01DC0102C001900D9285
:0C51300041505040D8F70895F894FFCF8C
:10513C0001000000FFFFE41F0620E71F1B151715D9
:10514C00010300FF0000FFFF003131295A1B750AD3
:10515C0030313233C690919293959496973435367C
:10516C006667F7000102030405060708090A0B0C21
:10517C000D0E0F101112131415161718191A1B1CDB
:10518C00FF1D1E1F202122232425262728FF292A24
:10519C002B2C2D2E2F303132333435363738FFFF50
:1051AC00FF39FFFF3A3B3C3D3E00000F001E002D37
:1051BC00003C004B005A006900780087009600A55F
:1051CC0000B400CA000710161025103410431052FA
:1051DC0010611070107F108E109D10AC10BB10CE93
:1051EC00100B201A202920382047205620652074C7
:1051FC002083209220A120B020C62012301E302DFA
:10520C00303C304B305A306930783087309630A58E
:10521C0030BF30D230034016402140654087409962
:10522C0040C340D240E140D820B42090206C2048AC
:10523C0020242004040404040404040404040404CA
:10524C00010104040404040404040404040401011E
:10525C000404040404040404040404010104040408
:10526C00040404040404040101010101040101010A
:10527C000101020202020202818283E200E900EAD9
:10528C0000B500B600B700CD008301CC008A0192B6
:10529C000194012102230224022502260227022A5C
:0A52AC0002B300B4006F00700000B0
:00000001FF
